<!DOCTYPE html>
<html lang="zh-CN">
<head>
    <meta charset="UTF-8" />

    

    

    <title>建立 Go Ethereum 私有網路鏈 | KaiRen&#39;s Blog</title>
    <meta name="author" content="Kyle Bai" />
    <meta name="version" content="1.0.0" />
    <meta name="keywords" content="undefined" />
    <meta name="description" content="Ethereum 專案是以區塊鏈原理，並進一步增加容納值、儲存資料，並且能封裝程式碼來建立智能合約(Smart Contracts)，形成區塊鏈應用程式，來執行運算任務。類似於比特幣(Bitcoin)，Ethereum 也具有一種貨幣，它叫做乙太幣(Ether)。乙太幣是開採於儲存在共享一致性的區塊鏈前驗證交易節點。乙太幣可以在賬戶(公有金鑰, Pubilc keys)與智能合約(Smart Contracts)之間進行轉移。


本節將說明如何透過 Ubuntu 部署 Go Ethereum。" />
    <meta http-equiv="X-UA-Compatible" content="IE=edge,chrome=1" />
    <meta name="viewport" content="width=device-width,initial-scale=1,user-scalable=no" />
    <meta name="baidu-site-verification" content="F0CXvmUgA9" />

    
    
    <link rel="icon" href="/images/favicon.png">
    

    <link rel="stylesheet" href="/css/style.css">
</head>
<body>

    <div class="app">
        <header class="header clearfix">
    <div id="nav" class="nav">
    <button id="open-panel" class="open-panel"><i class="icon-library"></i></button>

    <nav class="nav-inner">

        
        
        <li class="nav-item">
            <a class="nav-link" href="/">Home</a>
        </li>
        
        
        
        <li class="nav-item">
            <a class="nav-link" href="/categories">Category</a>
        </li>
        
        
        
        <li class="nav-item">
            <a class="nav-link" href="/archives">Archive</a>
        </li>
        
        
        
        <li class="nav-item nav-item-tag">
            <a id="nav-tag" class="nav-link" href="#">Tag</a>
            <div id="nav-tags" class="nav-tag-wrap">
                <i class="nav-tag-arrow"></i>
                
  <div class="widget-wrap">
    <h3 class="widget-title">
        <i class="icon-tag vm"></i>
        <span class="vm">Tags</span>
    </h3>
    <div class="widget">
      <ul class="tag-list"><li class="tag-list-item"><a class="tag-list-link" href="/tags/AWS/">AWS</a></li><li class="tag-list-item"><a class="tag-list-link" href="/tags/Ansible/">Ansible</a></li><li class="tag-list-item"><a class="tag-list-link" href="/tags/Automation-Engine/">Automation Engine</a></li><li class="tag-list-item"><a class="tag-list-link" href="/tags/Bare-Metal/">Bare Metal</a></li><li class="tag-list-item"><a class="tag-list-link" href="/tags/Bare-metal/">Bare-metal</a></li><li class="tag-list-item"><a class="tag-list-link" href="/tags/Blockchain/">Blockchain</a></li><li class="tag-list-item"><a class="tag-list-link" href="/tags/BlueStore/">BlueStore</a></li><li class="tag-list-item"><a class="tag-list-link" href="/tags/CNCF/">CNCF</a></li><li class="tag-list-item"><a class="tag-list-link" href="/tags/Calico/">Calico</a></li><li class="tag-list-item"><a class="tag-list-link" href="/tags/CentOS/">CentOS</a></li><li class="tag-list-item"><a class="tag-list-link" href="/tags/Ceph/">Ceph</a></li><li class="tag-list-item"><a class="tag-list-link" href="/tags/Concurrent/">Concurrent</a></li><li class="tag-list-item"><a class="tag-list-link" href="/tags/Container/">Container</a></li><li class="tag-list-item"><a class="tag-list-link" href="/tags/CoreOS/">CoreOS</a></li><li class="tag-list-item"><a class="tag-list-link" href="/tags/DC-OS/">DC/OS</a></li><li class="tag-list-item"><a class="tag-list-link" href="/tags/DL-ML/">DL/ML</a></li><li class="tag-list-item"><a class="tag-list-link" href="/tags/Data-Collect/">Data Collect</a></li><li class="tag-list-item"><a class="tag-list-link" href="/tags/Database/">Database</a></li><li class="tag-list-item"><a class="tag-list-link" href="/tags/DevOps/">DevOps</a></li><li class="tag-list-item"><a class="tag-list-link" href="/tags/DevStack/">DevStack</a></li><li class="tag-list-item"><a class="tag-list-link" href="/tags/Distribution-System/">Distribution System</a></li><li class="tag-list-item"><a class="tag-list-link" href="/tags/Docker/">Docker</a></li><li class="tag-list-item"><a class="tag-list-link" href="/tags/Docker-Swarm/">Docker Swarm</a></li><li class="tag-list-item"><a class="tag-list-link" href="/tags/Docker-registry/">Docker registry</a></li><li class="tag-list-item"><a class="tag-list-link" href="/tags/Ethereum/">Ethereum</a></li><li class="tag-list-item"><a class="tag-list-link" href="/tags/Federation/">Federation</a></li><li class="tag-list-item"><a class="tag-list-link" href="/tags/File-System/">File System</a></li><li class="tag-list-item"><a class="tag-list-link" href="/tags/GPU/">GPU</a></li><li class="tag-list-item"><a class="tag-list-link" href="/tags/Git/">Git</a></li><li class="tag-list-item"><a class="tag-list-link" href="/tags/Go-lang/">Go lang</a></li><li class="tag-list-item"><a class="tag-list-link" href="/tags/Golang/">Golang</a></li><li class="tag-list-item"><a class="tag-list-link" href="/tags/HDFS/">HDFS</a></li><li class="tag-list-item"><a class="tag-list-link" href="/tags/HTTP-Server/">HTTP Server</a></li><li class="tag-list-item"><a class="tag-list-link" href="/tags/Helm/">Helm</a></li><li class="tag-list-item"><a class="tag-list-link" href="/tags/High-Availability/">High Availability</a></li><li class="tag-list-item"><a class="tag-list-link" href="/tags/Java/">Java</a></li><li class="tag-list-item"><a class="tag-list-link" href="/tags/Kafka/">Kafka</a></li><li class="tag-list-item"><a class="tag-list-link" href="/tags/Keystone/">Keystone</a></li><li class="tag-list-item"><a class="tag-list-link" href="/tags/Kops/">Kops</a></li><li class="tag-list-item"><a class="tag-list-link" href="/tags/Kubernetes/">Kubernetes</a></li><li class="tag-list-item"><a class="tag-list-link" href="/tags/Kubernetes-RBAC/">Kubernetes RBAC</a></li><li class="tag-list-item"><a class="tag-list-link" href="/tags/LDAP/">LDAP</a></li><li class="tag-list-item"><a class="tag-list-link" href="/tags/Linux/">Linux</a></li><li class="tag-list-item"><a class="tag-list-link" href="/tags/Linux-Container/">Linux Container</a></li><li class="tag-list-item"><a class="tag-list-link" href="/tags/LinuxKit/">LinuxKit</a></li><li class="tag-list-item"><a class="tag-list-link" href="/tags/Load-Balancer/">Load Balancer</a></li><li class="tag-list-item"><a class="tag-list-link" href="/tags/Logging/">Logging</a></li><li class="tag-list-item"><a class="tag-list-link" href="/tags/Machine-Learning/">Machine Learning</a></li><li class="tag-list-item"><a class="tag-list-link" href="/tags/Maven/">Maven</a></li><li class="tag-list-item"><a class="tag-list-link" href="/tags/Mesos/">Mesos</a></li><li class="tag-list-item"><a class="tag-list-link" href="/tags/Message-Queue/">Message Queue</a></li><li class="tag-list-item"><a class="tag-list-link" href="/tags/Microkernel/">Microkernel</a></li><li class="tag-list-item"><a class="tag-list-link" href="/tags/Moby/">Moby</a></li><li class="tag-list-item"><a class="tag-list-link" href="/tags/Monitoring/">Monitoring</a></li><li class="tag-list-item"><a class="tag-list-link" href="/tags/NVIDIA-GPU/">NVIDIA GPU</a></li><li class="tag-list-item"><a class="tag-list-link" href="/tags/NoSQL/">NoSQL</a></li><li class="tag-list-item"><a class="tag-list-link" href="/tags/OOP/">OOP</a></li><li class="tag-list-item"><a class="tag-list-link" href="/tags/OS-X/">OS X</a></li><li class="tag-list-item"><a class="tag-list-link" href="/tags/OpenStack/">OpenStack</a></li><li class="tag-list-item"><a class="tag-list-link" href="/tags/Openstack/">Openstack</a></li><li class="tag-list-item"><a class="tag-list-link" href="/tags/PXE/">PXE</a></li><li class="tag-list-item"><a class="tag-list-link" href="/tags/Programming/">Programming</a></li><li class="tag-list-item"><a class="tag-list-link" href="/tags/Prometheus/">Prometheus</a></li><li class="tag-list-item"><a class="tag-list-link" href="/tags/Puppet/">Puppet</a></li><li class="tag-list-item"><a class="tag-list-link" href="/tags/Python/">Python</a></li><li class="tag-list-item"><a class="tag-list-link" href="/tags/SPDK/">SPDK</a></li><li class="tag-list-item"><a class="tag-list-link" href="/tags/SSD/">SSD</a></li><li class="tag-list-item"><a class="tag-list-link" href="/tags/Smart-Contract/">Smart Contract</a></li><li class="tag-list-item"><a class="tag-list-link" href="/tags/Solidity/">Solidity</a></li><li class="tag-list-item"><a class="tag-list-link" href="/tags/Spark/">Spark</a></li><li class="tag-list-item"><a class="tag-list-link" href="/tags/Storage/">Storage</a></li><li class="tag-list-item"><a class="tag-list-link" href="/tags/TensorFlow/">TensorFlow</a></li><li class="tag-list-item"><a class="tag-list-link" href="/tags/Ubuntu/">Ubuntu</a></li><li class="tag-list-item"><a class="tag-list-link" href="/tags/Vagrant/">Vagrant</a></li><li class="tag-list-item"><a class="tag-list-link" href="/tags/Visualization/">Visualization</a></li><li class="tag-list-item"><a class="tag-list-link" href="/tags/iOS/">iOS</a></li></ul>
    </div>
  </div>


            </div>
        </li>
        
        
        
        <li class="nav-item">
            <a class="nav-link" href="/about">About</a>
        </li>
        
        
        
        <li class="nav-item">
            <a class="nav-link" href="/atom.xml">Feed</a>
        </li>
        
        
        

    </nav>
</div>

    <aside id="aside" class="aside">
    <div id="aside-mask" class="aside-mask"></div>
    <div id="aside-inner" class="aside-inner">
        <form action="//google.com/search" method="get" accept-charset="UTF-8" class="search-form"><input type="search" name="q" class="search-form-input" placeholder="Search"><button type="submit" class="search-form-submit"><i class="icon-search-stroke"></i></button><input type="hidden" name="sitesearch" value="https://kairen.github.io"></form>

        
        
        
        

        
        <ol class="toc"><li class="toc-item toc-level-2"><a class="toc-link" href="#事前準備"><span class="toc-number">1.</span> <span class="toc-text">事前準備</span></a></li><li class="toc-item toc-level-2"><a class="toc-link" href="#建立-Ethereum-環境"><span class="toc-number">2.</span> <span class="toc-text">建立 Ethereum 環境</span></a></li><li class="toc-item toc-level-2"><a class="toc-link" href="#驗證服務"><span class="toc-number">3.</span> <span class="toc-text">驗證服務</span></a></li><li class="toc-item toc-level-2"><a class="toc-link" href="#簡單的-Contract"><span class="toc-number">4.</span> <span class="toc-text">簡單的 Contract</span></a></li></ol>
        
    </div>
</aside>

</header>

        <div id="content" class="content"><article class="article" itemscope itemprop="blogPost">
    
    <header class="article-header">
        
        <h1 itemprop="name">
            建立 Go Ethereum 私有網路鏈
        </h1>
        
        <div class="article-meta clearfix">
            <a class="article-date" href="/2017/05/25/blockchain/multi-node-geth/">
    
    <i class="icon-calendar"></i>
    
    <time datetime="2017-05-25T09:08:54.000Z" itemprop="datePublished">2017-05-25</time>
</a>

            
<div class="article-tag-list">
    <i class="icon-tag"></i>
    <a class="article-tag-link" href="/tags/Blockchain/">Blockchain</a>, <a class="article-tag-link" href="/tags/Ethereum/">Ethereum</a>, <a class="article-tag-link" href="/tags/Go-lang/">Go lang</a>
</div>


        </div>
    </header>
    
    <section class="article-body markdown-body">
        
        <p>Ethereum 專案是以區塊鏈原理，並進一步增加容納值、儲存資料，並且能封裝程式碼來建立智能合約(Smart Contracts)，形成區塊鏈應用程式，來執行運算任務。類似於比特幣(Bitcoin)，Ethereum 也具有一種貨幣，它叫做<code>乙太幣(Ether)</code>。乙太幣是開採於儲存在共享一致性的區塊鏈前驗證交易節點。乙太幣可以在賬戶(公有金鑰, Pubilc keys)與智能合約(Smart Contracts)之間進行轉移。</p>
<center><img src="/images/blockchain/ethereum-logo.png" alt="ethereum-logo"></center>

<p>本節將說明如何透過 Ubuntu 部署 Go Ethereum。並利用簡單的指令來進行 Demo。</p>
<a id="more"></a>
<h2 id="事前準備"><a href="#事前準備" class="headerlink" title="事前準備"></a>事前準備</h2><p>本次會使用到兩個節點來建立 Geth Instances，其規格如下：</p>
<table>
<thead>
<tr>
<th>Role</th>
<th>CPUs</th>
<th>RAM</th>
<th>Disk</th>
</tr>
</thead>
<tbody>
<tr>
<td>geth-1</td>
<td>2vCPU</td>
<td>4 GB</td>
<td>40 GB</td>
</tr>
<tr>
<td>geth-2</td>
<td>2vCPU</td>
<td>4 GB</td>
<td>40 GB</td>
</tr>
</tbody>
</table>
<p>首先在每個節點安裝 Ethereum 最新版本，可以依照官方透過以下方式快速安裝：</p>
<pre><code class="sh">$ sudo apt-get install -y software-properties-common
$ sudo add-apt-repository -y ppa:ethereum/ethereum
$ sudo apt-get update &amp;&amp; sudo apt-get install ethereum
</code></pre>
<p>在每個節點建立一個<code>private.json</code>檔案來定義起源區塊(Genesis Block)，內容如下：</p>
<pre><code class="json">{
  &quot;coinbase&quot; : &quot;0x0000000000000000000000000000000000000000&quot;,
  &quot;difficulty&quot; : &quot;0x40000&quot;,
  &quot;extraData&quot; : &quot;Custem Ethereum Genesis Block&quot;,
  &quot;gasLimit&quot; : &quot;0xffffffff&quot;,
  &quot;nonce&quot; : &quot;0x0000000000000042&quot;,
  &quot;mixhash&quot; : &quot;0x0000000000000000000000000000000000000000000000000000000000000000&quot;,
  &quot;parentHash&quot; : &quot;0x0000000000000000000000000000000000000000000000000000000000000000&quot;,
  &quot;timestamp&quot; : &quot;0x00&quot;,
  &quot;config&quot;: {
        &quot;chainId&quot;: 123,
        &quot;homesteadBlock&quot;: 0,
        &quot;eip155Block&quot;: 0,
        &quot;eip158Block&quot;: 0
    },
    &quot;alloc&quot;: { }
}
</code></pre>
<p>初始化創世區塊：</p>
<pre><code class="sh">$ geth init --datadir=data/ private.json
</code></pre>
<p>在每個節點新增一名稱為<code>geth-private.sh</code>的腳本程式，將用於啟動 geth，並放置背景：</p>
<pre><code class="sh">#!/bin/bash
# Program:
#       This program is a private geth runner.
# History:
# 2016/05/22 Kyle Bai Release
#
echo &quot;Starting private geth&quot;
screen -dmS geth /usr/bin/geth \
            --datadir data/ \
            --networkid 123 \
            --nodiscover \
            --maxpeers 5 \
            --port 30301 \
            --rpc \
            --rpcaddr &quot;0.0.0.0&quot; \
            --rpcport &quot;8545&quot; \
            --rpcapi &quot;admin,db,eth,debug,miner,net,shh,txpool,personal,web3&quot; \
            --rpccorsdomain &quot;*&quot; \
            -verbosity 6
</code></pre>
<blockquote>
<p>更多的參數，請參考 <a href="https://github.com/ethereum/go-ethereum/wiki/Command-Line-Options" target="_blank" rel="noopener">Command-Line-Options</a>。</p>
</blockquote>
<p>建立完成後，修改執行權限：</p>
<pre><code class="sh">$ chmod u+x geth-private.sh
</code></pre>
<h2 id="建立-Ethereum-環境"><a href="#建立-Ethereum-環境" class="headerlink" title="建立 Ethereum 環境"></a>建立 Ethereum 環境</h2><p>首先進入到<code>geth-1</code>節點透過以下方式來啟動：</p>
<pre><code class="sh">$ ./geth-private.sh
Starting private geth
</code></pre>
<blockquote>
<p>這時候會透過 screen 執行於背景，我們可以透過<code>screen -x geth</code>來進行前景。若要回到背景則透過<code>[Ctrl-A] + [Ctrl-D]</code>來 detached。要關閉 screen 則透過 <code>[Ctrl-C]</code>。</p>
</blockquote>
<p>接著為了確認是否正確啟動，我們可以透過 geth 的 attach 指令來連接 console：</p>
<pre><code class="sh">$ geth attach ipc:data/geth.ipc
</code></pre>
<blockquote>
<p>也可以透過 HTTP 方式 attach，<code>geth attach http://localhost:8545</code>。</p>
<p>若一開始建立沒有 RPC，但想要加入 RPC 可以 attach 後，輸入以下 function：</p>
<pre><code class="sh">admin.startRPC(&quot;0.0.0.0&quot;, 8545, &quot;*&quot;, &quot;web3,db,net,eth&quot;)
</code></pre>
</blockquote>
<p>進入後透過 admin API 來取得節點的資訊：</p>
<pre><code class="sh">&gt; admin.nodeInfo.enode
&quot;enode://e3dd0392a2971c4b0c4c43a01cd682e19f31aaa573c43a9b227685af7ffed5070217392ae5ada278968d5c4bfddd9c93547bcf4592852196a8facbcdad64d257@[::]:30301?discport=0&quot;
</code></pre>
<blockquote>
<p>這邊要取代<code>[::]</code>為主機 IP，如以下：</p>
<pre><code>&quot;enode://e3dd0392a2971c4b0c4c43a01cd682e19f31aaa573c43a9b227685af7ffed5070217392ae5ada278968d5c4bfddd9c93547bcf4592852196a8facbcdad64d257@172.16.1.99:30301?discport=0&quot;
</code></pre></blockquote>
<p>上面沒問題後，接著進入到<code>geth-2</code>節點，然後透過以下指令開啟 console：</p>
<pre><code class="sh">$ geth init --datadir=data/ private.json
$ geth --datadir data/ \
       --networkid 123 \
       --nodiscover \
       --maxpeers 5 \
       --port 30301 \
       --rpc \
       --rpcaddr &quot;0.0.0.0&quot; \
       --rpcport &quot;8545&quot; \
       --rpcapi &quot;admin,db,eth,debug,miner,net,shh,txpool,personal,web3&quot; \
      --rpccorsdomain &quot;*&quot; \
      -verbosity 6 \
       console
</code></pre>
<blockquote>
<p>也可以透過上一個節點的方式將服務放到背景，在 attach。</p>
</blockquote>
<p>完成上面指令會直接進入 console，接著透過以下方式來連接<code>geth-1</code>：</p>
<pre><code class="sh">&gt; admin.addPeer(&quot;enode://e3dd0392a2971c4b0c4c43a01cd682e19f31aaa573c43a9b227685af7ffed5070217392ae5ada278968d5c4bfddd9c93547bcf4592852196a8facbcdad64d257@172.16.1.99:30301?discport=0&quot;)
true

I0525 12:56:40.623642 eth/downloader/downloader.go:239] Registering peer e3dd0392a2971c4b
I0525 12:57:10.622920 p2p/server.go:467] &lt;-taskdone: wait for dial hist expire (29.99999387s)
</code></pre>
<p>接著透過 net API 進行查看連接狀態：</p>
<pre><code class="sh">&gt; net.peerCount
1

&gt; admin.peers
[{
    caps: [&quot;eth/61&quot;, &quot;eth/62&quot;, &quot;eth/63&quot;],
    id: &quot;e3dd0392a2971c4b0c4c43a01cd682e19f31aaa573c43a9b227685af7ffed5070217392ae5ada278968d5c4bfddd9c93547bcf4592852196a8facbcdad64d257&quot;,
    name: &quot;Geth/v1.4.5-stable/linux/go1.5.1&quot;,
    network: {
      localAddress: &quot;172.16.1.100:51038&quot;,
      remoteAddress: &quot;172.16.1.99:30301&quot;
    },
    protocols: {
      eth: {
        difficulty: 131072,
        head: &quot;882048e0d045ea48903eddb4c50825a4e3c6c1a055df6a32244e9a9239f8c5e8&quot;,
        version: 63
      }
    }
}]
</code></pre>
<h2 id="驗證服務"><a href="#驗證服務" class="headerlink" title="驗證服務"></a>驗證服務</h2><p>這部分將透過幾個指令與流程來驗證服務，首先在<code>geth-1</code>透過 attach 進入，並建立一個賬戶與查看乙太幣：</p>
<pre><code class="sh">$ geth attach http://localhost:8545

&gt; kairen = personal.newAccount();
Passphrase:
Repeat passphrase:
&quot;0xcb41ad8ba28c4b8b52eee159ef3bb6da197ff60b&quot;

&gt; personal.listAccounts
[&quot;0xcb41ad8ba28c4b8b52eee159ef3bb6da197ff60b&quot;]

&gt; web3.fromWei(eth.getBalance(kairen), &quot;ether&quot;);
0
</code></pre>
<blockquote>
<p>P.S. 若要移除帳號，可以刪除<code>data/keystore</code>底下的檔案。</p>
</blockquote>
<p>接著在<code>geth-2</code>透過以下指令建立一個賬戶與查看乙太幣：</p>
<pre><code class="sh">&gt; pingyu = personal.newAccount();
Passphrase:
Repeat passphrase:
&quot;0xf8c70df559cb9225f6e426d0f139fd6e8752c644&quot;

&gt; personal.listAccounts
[&quot;0xf8c70df559cb9225f6e426d0f139fd6e8752c644&quot;]

&gt; web3.fromWei(eth.getBalance(pingyu), &quot;ether&quot;);
0
</code></pre>
<p>接著回到<code>geth-1</code>來賺取一些要交易的乙太幣：</p>
<pre><code class="sh">&gt; miner.setEtherbase(kairen)
true
</code></pre>
<p>當賬戶設定完成後，就可以執行以下指令進行採礦：</p>
<pre><code class="sh">&gt; miner.start(1)
true
</code></pre>
<blockquote>
<p>這邊需要一點時間產生 DAG，可以開一個新的命令列透過<code>screen -x geth</code>查看。</p>
<p>經過一段時間後，當 DAG 完成並開始採擴時就可以<code>miner.stop()</code>。</p>
</blockquote>
<p>接著在<code>geth-1</code>查看賬戶的乙太幣：</p>
<pre><code class="sh">&gt; web3.fromWei(eth.getBalance(kairen), &quot;ether&quot;);
40.78125
</code></pre>
<p>當成開採區塊後，就可以查看<code>geth-1</code>共採集的 ether balance 的數值：</p>
<pre><code>&gt; eth.getBalance(eth.coinbase).toNumber()
40781250000000000000
</code></pre><blockquote>
<p>即為<code>40.78125</code>乙太幣。</p>
</blockquote>
<p>接著我們要在將<code>geth-1</code>的賬戶乙太幣轉移到<code>geth-2</code>上，首先在<code>geth-1</code>上建立一個變數來存<code>geth-2</code>的賬戶位址：</p>
<pre><code class="sh">&gt; consumer = &quot;0xf8c70df559cb9225f6e426d0f139fd6e8752c644&quot;
&quot;0xf8c70df559cb9225f6e426d0f139fd6e8752c644&quot;
</code></pre>
<p>完成上述後，首先要將賬戶解鎖：</p>
<pre><code class="sh">&gt; personal.unlockAccount(kairen)
true
</code></pre>
<blockquote>
<p>輸入當初建立賬戶的密碼。</p>
</blockquote>
<p>並透過 eth API 的交易函式還將 ether balance 數值轉移：</p>
<pre><code class="sh">$ eth.sendTransaction({from: kairen, to: consumer, value: web3.toWei(10, &quot;ether&quot;)})
&quot;0x1aee9082a55751c59077a273e7b08acd028d5099a4986f002518b0c8919d9e36&quot;
</code></pre>
<p>若有在每一台 geth 節點上進入 debug 模式的話，會發現該交易資訊被存到一個區塊，這邊也可以透過 txpool 與 eth API 來查看：</p>
<pre><code class="sh">&gt; txpool.status
{
  pending: 1,
  queued: 0
}

&gt; eth.getBlock(&quot;pending&quot;, true).transactions
[{
    blockHash: &quot;0x0b58d0b17e02f56746b0b5b22f195b6ae71d47343bf778763c4c476386ad7db7&quot;,
    blockNumber: 112,
    from: &quot;0xcb41ad8ba28c4b8b52eee159ef3bb6da197ff60b&quot;,
    gas: 90000,
    gasPrice: 20000000000,
    hash: &quot;0x1aee9082a55751c59077a273e7b08acd028d5099a4986f002518b0c8919d9e36&quot;,
    input: &quot;0x&quot;,
    nonce: 0,
    to: &quot;0xf8c70df559cb9225f6e426d0f139fd6e8752c644&quot;,
    transactionIndex: 0,
    value: 10000000000000000000
}]
</code></pre>
<blockquote>
<p>這邊的<code>pending</code>表示目前還沒有被驗證，因此我們需要一些節點來進行採礦驗證。這邊也可以發現該交易資訊被存在區塊編號<code>112</code>，可以提供往後查詢之用。</p>
</blockquote>
<p>接著回到<code>geth-2</code>節點，查看目前的數值變化：</p>
<pre><code class="sh">&gt; web3.fromWei(eth.getBalance(pingyu), &quot;ether&quot;);
0
</code></pre>
<p>這邊會發現沒有任何錢進來，Why? so sad。其實是因為該區塊還沒有被採集與認證，因此該交易不會被執行。</p>
<p>因此我們需要在任一節點提供運算，這邊在<code>geth-1</code>執行以下指令來進行採礦，這樣就可以看到該交易被驗證與接受：</p>
<pre><code class="sh">&gt; miner.start(1)
true

TX(1aee9082a55751c59077a273e7b08acd028d5099a4986f002518b0c8919d9e36)
Contract: false
From:     cb41ad8ba28c4b8b52eee159ef3bb6da197ff60b
To:       f8c70df559cb9225f6e426d0f139fd6e8752c644
Nonce:    0
GasPrice: 20000000000
GasLimit  90000
Value:    10000000000000000000
Data:     0x
V:        0x1c
R:        0x9de7d843959f55a553577dc68a887893adf1b80eccd872021dfa6b8bcf3db43
S:        0x287f8e01640ccd5924308725d2d274def7edc4a18169b36ae26c95216fdf0fed
Hex:      f86d808504a817c80083015f9094f8c70df559cb9225f6e426d0f139fd6e8752c644888ac7230489e80000801ca009de7d843959f55a553577dc68a887893adf1b80eccd872021dfa6b8bcf3db43a0287f8e01640ccd5924308725d2d274def7edc4a18169b36ae26c95216fdf0fed
</code></pre>
<blockquote>
<p>當該區塊的交易確認沒問題被執行後，就可以透過<code>miner.stop()</code>停止採礦。</p>
</blockquote>
<p>這時再回到<code>geth-2</code>節點，查看目前的數值變化，會發現增加了 10 枚乙太幣：</p>
<pre><code class="sh">&gt; web3.fromWei(eth.getBalance(pingyu), &quot;ether&quot;);
10
</code></pre>
<p>之後可以在任一節點透過 eth web3 的 API 來查找指定區塊的交易資訊：</p>
<pre><code class="sh">&gt; eth.getTransactionFromBlock(40)
{
  blockHash: &quot;0xe839c1392657731417fc04b9aecf7a181dd339086d5f7cdea0bccc2b1483b885&quot;,
  blockNumber: 112,
  from: &quot;0xcb41ad8ba28c4b8b52eee159ef3bb6da197ff60b&quot;,
  gas: 90000,
  gasPrice: 20000000000,
  hash: &quot;0x1aee9082a55751c59077a273e7b08acd028d5099a4986f002518b0c8919d9e36&quot;,
  input: &quot;0x&quot;,
  nonce: 0,
  to: &quot;0xf8c70df559cb9225f6e426d0f139fd6e8752c644&quot;,
  transactionIndex: 0,
  value: 10000000000000000000
}
</code></pre>
<h2 id="簡單的-Contract"><a href="#簡單的-Contract" class="headerlink" title="簡單的 Contract"></a>簡單的 Contract</h2><p>這邊將說明如何建立一個簡單的合約(Contract)來部署於區塊鏈上，首先複製以下內容：</p>
<pre><code>contract SimpleStorage {
    uint storedData;
    function set(uint x) {
        storedData = x;
    }
    function get() constant returns (uint retVal) {
        return storedData;
    }
}
</code></pre><p>接著將內容貼到 <a href="https://ethereum.github.io/browser-solidity" target="_blank" rel="noopener">browser-solidity</a> 進行編譯成 JavaScript。如快照畫面所示。</p>
<center><img src="/images/blockchain/snapshot-contract.png" alt=""></center>

<p>透過這個 IDE 可以將 Solidity 語言轉換成 web3 code(JavaScript)，複製 web3 code 的內容，並儲存成<code>SimpleStorage.js</code>檔案放置到<code>geth-1</code>上。接著 attach 進入 geth 執行以下指令：</p>
<pre><code class="sh">&gt; loadScript(&#39;SimpleStorage.js&#39;);
</code></pre>
<p>若有自行安裝<code>browser-solidity</code>的話，則可以使用如下圖一樣的方式連接。</p>
<center><img src="/images/blockchain/snapshot-dash-web3-provider.png" alt=""></center>

        
    </section>
</article>

</div>
        <footer class="footer">
    Powered by <a href="http://hexo.io/" target="_blank">Hexo</a>, Theme by <a href="https://github.com/sanonz/hexo-theme-concise" target="_blank">Concise</a>
</footer>


    </div>

    <script type="text/javascript" src="https://cdn.bootcss.com/jquery/1.9.0/jquery.min.js"></script>
    
    <script type="text/javascript" src="/js/scrollspy.min.js"></script>
    
    <script type="text/javascript">
        $(function() {
            var nodes = {
                nav: $('#nav'),
                aside: $('#aside'),
                navTags: $('#nav-tags')
            };

            $('#open-panel, #aside-mask').on('click', function() {
                nodes.aside.toggleClass('panel-show');
            });
            $('#nav-tag').on('click', function(event) {
                event.preventDefault();console.log(nodes.navTags.attr('class'))
                nodes.navTags.toggleClass('tag-show');console.log(nodes.navTags.attr('class'))
            })/*.hover(function() {
                nodes.navTags.addClass('tag-show');
            }, function() {
                nodes.navTags.removeClass('tag-show');
            });*/

            
            $(document.body).scrollspy({target: '#aside-inner'});
            
        });
    </script>

</body>
</html>
